:1000000000020020211000008D100000951000005B
:100010009D1000009D1000009D10000000000000D9
:100020000000000000000000000000009D10000023
:100030009D100000000000009D1000009D100000B9
:100040009D1000009D1000009D1000009D100000FC
:100050009D1000009D1000009D1000009D100000EC
:100060009D1000009D1000009D1000009D100000DC
:100070009D1000009D1000009D1000009D100000CC
:100080009D1000009D1000009D1000009D100000BC
:100090009D1000009D1000009D1000009D100000AC
:1000A0009D1000009D1000009D1000009D1000009C
:1000B0009D1000009D1000009D1000009D1000008C
:1000C0009D1000009D1000009D1000009D1000007C
:1000D0009D1000009D1000009D1000009D1000006C
:1000E0009D1000009D1000009D1000009D1000005C
:1000F0009D1000009D1000009D1000009D1000004C
:100100009D1000009D1000009D1000009D1000003B
:100110009D1000009D1000009D1000009D1000002B
:100120009D1000009D1000009D1000009D1000001B
:100130009D1000009D1000009D1000009D1000000B
:1001400000000000000000000000000000000000AF
:100150009D1000009D1000009D1000009D100000EB
:10016000000000000000000000000000000000008F
:10017000000000000000000000000000000000007F
:10018000000000000000000000000000000000006F
:10019000000000000000000000000000000000005F
:1001A000000000000000000000000000000000004F
:1001B0009D1000009D1000009D1000009D1000008B
:1001C0009D1000009D1000009D1000009D1000007B
:1001D0009D1000009D1000009D1000009D1000006B
:1001E0009D1000009D1000009D1000009D1000005B
:1001F0009D1000009D1000009D1000009D1000004B
:100200009D1000009D1000009D10000000000000E7
:100210009D1000009D1000009D1000009D1000002A
:100220009D1000009D1000009D1000009D1000001A
:100230009D1000009D1000009D1000009D1000000A
:100240009D1000009D1000009D1000009D100000FA
:100250009D1000009D1000009D1000009D100000EA
:100260009D1000009D1000009D10000080B500AFA3
:100270003E4800F0A7FFFF213D4800F094FF4CF2FC
:10028000503000F0CDFF00220121394800F088FFF6
:100290003022F021364800F083FF02220221344848
:1002A00000F07EFF0A2000F0BBFF00220221304850
:1002B00000F076FF4CF2503000F0B2FF3022F02117
:1002C0002B4800F06DFF02220221294800F068FF50
:1002D0000A2000F0A5FF00220221254800F060FF5F
:1002E0004CF2503000F09CFF3022F021204800F00A
:1002F00057FF022202211E4800F052FF0A2000F0A0
:100300008FFF002202211A4800F04AFF4CF25030C1
:1003100000F086FF2022F021154800F041FF022264
:100320000221134800F03CFF0A2000F079FF002270
:1003300002210F4800F034FF4CF2503000F070FF03
:10034000282000F017F8C02000F014F8062000F074
:1003500011F8802000F00EF8282000F00BF80F2094
:1003600000F008F800F0CEF800BF80BD02000020C9
:100370000050004080B582B000AF0346FB71FB79AE
:1003800023F00F03DBB21A46F0211E4800F008FFED
:10039000002201211B4800F003FF0222022119481C
:1003A00000F0FEFE4CF2503000F03AFF0022022135
:1003B000144800F0F5FE4CF2503000F031FFFB79AC
:1003C0001B01DBB21A46F0210E4800F0E9FE0022C4
:1003D00001210C4800F0E4FE02220221094800F04D
:1003E000DFFE0A2000F01CFF00220221054800F079
:1003F000D7FE4CF2503000F013FF00BF0837BD4667
:1004000080BD00BF0050004080B582B000AF034601
:10041000FB71FB7923F00F03DBB21A46F0211D4874
:1004200000F0BEFE012201211A4800F0B9FE0222AE
:100430000221184800F0B4FE0A2000F0F1FE00226C
:100440000221144800F0ACFE4CF2503000F0E8FEFF
:10045000FB791B01DBB21A46F0210E4800F0A0FE2A
:10046000012201210B4800F09BFE022202210948D3
:1004700000F096FE0A2000F0D3FE0022022105487B
:1004800000F08EFE4CF2503000F0CAFE00BF08377C
:10049000BD4680BD0050004080B582B000AF03462D
:1004A0000A46FB711346BB7197F90730012B11D136
:1004B00097F906305A1E124B1340002B03DA013B0A
:1004C00063F00F030133DBB2803BDBB21846FFF76A
:1004D00051FF10E097F906305A1E094B1340002BCC
:1004E00003DA013B63F00F030133DBB2403BDBB2C5
:1004F0001846FFF73FFF00BF0837BD4680BD00BF6D
:100500000F00008080B500AF0120FFF733FF0A2005
:1005100000F086FE00BF80BD80B582B000AF78607D
:1005200008E07B685A1C7A6093F90030DBB2184609
:10053000FFF76AFF7B6893F90030002BF1D100BF11
:100540000837BD4680BD00BF80B483B000AF134AFA
:10055000124B1B6843F010031360114B1B687B6048
:10056000104B114A1A60114B3F221A60104B0022A7
:100570001A60104B00221A600F4B00221A600F4BBA
:1005800000221A600E4B3F221A600E4B3F221A6067
:1005900000BF0C37BD465DF8047B704708E10F4093
:1005A00008E60F40204502404B434F4C2445024093
:1005B000284502402C4502400044024020440240AD
:1005C000104502401C45024080B598B000AF8948F4
:1005D00000F02AFEFFF74AFEFFF7B6FF0023FB6597
:1005E0000023BB6500237B6500233B6504210120BC
:1005F000FFF752FF8048FFF78FFF05210220FFF72A
:100600004BFF7E48FFF788FF0023FB6002E0FB689A
:100610000133FB60FB687A4A9342F8D9FFF772FF17
:100620000023FB600023BB60764B1B6803F00203D2
:10063000FB64744B1B6803F00403BB64714B1B68C1
:1006400003F008037B646F4B1B6803F010033B64EB
:100650006C4B1B6803F02003FB63FB6C022B2ED05A
:10066000FB6D0133FB65FA6D674B83FB0213991039
:10067000D317C91A0B469B000B445B00D31AFB65CA
:1006800007F110030A221946F86D00F09FFE0C21B5
:100690000120FFF701FF07F110031846FFF73CFFA9
:1006A00000237B6002E07B6801337B607B68574AF4
:1006B0009342F8D90023FB600023BB60B5E0BB6C1C
:1006C000042B2ED0BB6D0133BB65BA6D4E4B83FB43
:1006D00002139910D317C91A0B469B000B445B00F9
:1006E000D31ABB6507F110030A221946B86D00F052
:1006F0006DFE0D210120FFF7CFFE07F11003184614
:10070000FFF70AFF00237B6002E07B6801337B6018
:100710007B683E4A9342F8D90023FB600023BB600C
:1007200083E07B6C082B0CD0BB680133BB600E21CF
:100730000120FFF7B1FE3648FFF7EEFE0023FB6015
:1007400073E03B6C102B2ED07B6D01337B657A6D93
:100750002D4B83FB02139910D317C91A0B469B002C
:100760000B445B00D31A7B6507F110030A2219467C
:10077000786D00F02BFE0F210120FFF78DFE07F1B1
:1007800010031846FFF7C8FE00237B6002E07B6879
:1007900001337B607B681D4A9342F8D90023FB60DC
:1007A0000023BB6041E0FB6B202B3ED03B6D01334F
:1007B0003B653A6D144B83FB02139910D317C91A8A
:1007C0000B469B000B445B00D31A3B6507F11003FB
:1007D0000A221946386D00F0F9FD10210120FFF7BB
:1007E0005BFE07F110031846FFF796FE00237B60BF
:1007F00013E000BF4005C001541400006014000065
:10080000BFC62D00FC430240676666669FBB0D00B5
:100810006C1400007B6801337B607B68B44A9342B0
:10082000F8D90023FB600023BB60BB68C72B0BD942
:10083000FFF768FE0023FB650023BB6500237B6593
:1008400000233B650023BB60FB68AA4A934240F04B
:10085000D183FFF757FEFA6D13469B0013445B00EC
:10086000FB65FB6DA44A82FB0312D210DB17D31A7F
:10087000BB63BB6B6FF0130202FB03F3FA6D13440F
:10088000FB65FB6D9C4A82FB03129210DB17D31AA7
:100890007B6307F110030A221946786B00F096FD7E
:1008A0000C210120FFF7F8FD07F110031846FFF7B0
:1008B00033FE07F110030A221946B86D00F086FDD9
:1008C0000D210120FFF7E8FD07F110031846FFF79F
:1008D00023FE0E210120FFF7DFFD8848FFF71CFEF5
:1008E00007F110030A221946786D00F06FFD0F2101
:1008F0000120FFF7D1FD07F110031846FFF70CFEAA
:1009000007F110030A221946386D00F05FFD10212F
:100910000120FFF7C1FD07F110031846FFF7FCFDAA
:1009200007F110030A221946B86B00F04FFD0121B0
:100930000220FFF7B1FD07F110031846FFF7ECFDA9
:1009400003210220FFF7A8FD6D48FFF7E5FD002316
:100950007B6002E07B6801337B607B68694A93427D
:10096000F8D9FFF7CFFDFB6D634A82FB03129210AB
:10097000DB17D31A3B6307F110030A221946B86D3F
:1009800000F024FD0D210120FFF786FD07F1100383
:100990001846FFF7C1FD0E210120FFF77DFD5748E6
:1009A000FFF7BAFD07F110030A221946786D00F02F
:1009B0000DFD0F210120FFF76FFD07F11003184611
:1009C000FFF7AAFD07F110030A221946386D00F05F
:1009D000FDFC10210120FFF75FFD07F11003184611
:1009E000FFF79AFD07F110030A221946386B00F051
:1009F000EDFC01210220FFF74FFD07F1100318461F
:100A0000FFF78AFD03210220FFF746FD3E48FFF76E
:100A100083FD00237B6002E07B6801337B607B68A1
:100A2000384A9342F8D9FFF76DFDBB6D324A82FB1D
:100A300003125210DB17D31AFB62FA6A13469B07A4
:100A40009B1A9B009B1ABA6D1344BB6507F11003F8
:100A50000A221946B86D00F0B9FC0D210120FFF7FC
:100A60001BFD07F110031846FFF756FD0E2101206C
:100A7000FFF712FD2148FFF74FFD07F110030A228F
:100A80001946786D00F0A2FC0F210120FFF704FD4C
:100A900007F110031846FFF73FFD07F110030A2284
:100AA0001946386D00F092FC10210120FFF7F4FC8C
:100AB00007F110031846FFF72FFD07F110030A2274
:100AC0001946F86A00F082FC01210220FFF7E4FCDD
:100AD00007F110031846FFF71FFD03210220FFF75F
:100AE000DBFC0A48FFF718FD00237B6013E000BF22
:100AF0009FBB0D0080841E00676666666C14000054
:100B0000701400007F8D5B007C14000084140000D2
:100B10007B6801337B607B68CA4A9342F8D9FFF750
:100B2000F1FCBB6DBB620D210120FFF7B5FCC6488F
:100B3000FFF7F2FC0E210120FFF7AEFCC348FFF7E0
:100B4000EBFC07F110030A221946786D00F03EFC19
:100B50000F210120FFF7A0FC07F110031846FFF753
:100B6000DBFC07F110030A221946386D00F02EFC59
:100B700010210120FFF790FC07F110031846FFF742
:100B8000CBFC07F110030A221946B86A00F01EFCDC
:100B900001210220FFF780FC07F110031846FFF740
:100BA000BBFC03210220FFF777FCA948FFF7B4FC48
:100BB00000237B6002E07B6801337B607B68A14A95
:100BC0009342F8D9FFF79EFC7A6D13469B001344BD
:100BD0005B007B657B6D9F4A82FB03121211DB1762
:100BE000D31A7B627B6A6FF0310202FB03F37A6DEA
:100BF00013447B650D210120FFF74EFC9248FFF75F
:100C00008BFC0E210120FFF747FC9048FFF784FC86
:100C100007F110030A221946786D00F0D7FB0F2167
:100C20000120FFF739FC07F110031846FFF774FCA9
:100C300007F110030A221946386D00F0C7FB102196
:100C40000120FFF729FC07F110031846FFF764FCA9
:100C500007F110030A221946786A00F0B7FB012158
:100C60000220FFF719FC07F110031846FFF754FCA8
:100C700003210220FFF710FC7748FFF74DFC00230B
:100C80007B6002E07B6801337B607B686D4A934246
:100C9000F8D9FFF737FC7A6D3B6D13447B637B6BB0
:100CA0006C4A82FB0312D210DB17D31A3B623B6AF9
:100CB0006FF0180202FB03F37A6B13447B637B6BC8
:100CC000664A82FB03129210DB17D31A7B657A6B9C
:100CD000624B83FB02139910D317C91A0B469B0072
:100CE0000B445B00D31A3B650D210120FFF7D4FBB9
:100CF0005548FFF711FC0E210120FFF7CDFB5348AB
:100D0000FFF70AFC07F110030A221946786D00F07C
:100D10005DFB0F210120FFF7BFFB07F11003184611
:100D2000FFF7FAFB07F110030A221946386D00F0AD
:100D30004DFB10210120FFF7AFFB07F11003184610
:100D4000FFF7EAFB07F110030A221946386A00F0A0
:100D50003DFB01210220FFF79FFB07F1100318461E
:100D6000FFF7DAFB03210220FFF796FB3C48FFF771
:100D7000D3FB00237B6002E07B6801337B607B68F0
:100D8000304A9342F8D9FFF7BDFB7B6B334A82FBB5
:100D900003129210DB17D31AFB61FB696FF0090293
:100DA00002FB03F37A6B13447B637A6B2B4B83FB5D
:100DB00002139910D317C91A0B469B000B445B0012
:100DC000D31A3B650D210120FFF766FB1E48FFF794
:100DD000A3FB0E210120FFF75FFB1C48FFF79CFBE4
:100DE0000F210120FFF758FB1748FFF795FB07F18C
:100DF00010030A221946386D00F0E8FA102101208C
:100E0000FFF74AFB07F110031846FFF785FB07F1D0
:100E100010030A221946F86900F0D8FA01210220CD
:100E2000FFF73AFB07F110031846FFF775FB0321A4
:100E30000220FFF731FB0B48FFF76EFB00237B60BE
:100E400015E000BF7F8D5B008C1400006C14000067
:100E5000901400001F85EB519814000067666666C9
:100E6000A4140000B01400007B6801337B607B6831
:100E7000634A9342F8D9FFF745FB7B6B614A82FBDB
:100E800003125210DB17D31ABB61BA6913469B07D2
:100E90009B1A9B009B1A7A6B13447B637A6B594BAA
:100EA00083FB02139910D317C91A0B469B000B44FE
:100EB0005B00D31A3B650D210120FFF7EDFA524884
:100EC000FFF72AFB0E210120FFF7E6FA4F48FFF754
:100ED00023FB0F210120FFF7DFFA4B48FFF71CFB34
:100EE00007F110030A221946386D00F06FFA10213D
:100EF0000120FFF7D1FA07F110031846FFF70CFBAA
:100F000007F110030A221946B86900F05FFA0121BF
:100F10000220FFF7C1FA07F110031846FFF7FCFAA9
:100F200003210220FFF7B8FA3948FFF7F5FA00234A
:100F30007B6002E07B6801337B607B68304A9342D0
:100F4000F8D97B6B7B610D210120FFF7A5FA2E48B4
:100F5000FFF7E2FA0E210120FFF79EFA2B48FFF778
:100F6000DBFA0F210120FFF797FA2748FFF7D4FAA1
:100F700010210120FFF790FA2348FFF7CDFA07F17F
:100F800010030A221946786900F020FA0121022094
:100F9000FFF782FA07F110031846FFF7BDFA0321A5
:100FA0000220FFF779FA1B48FFF7B6FA00237B60AF
:100FB00002E07B6801337B607B68114A9342F8D979
:100FC000FFF7A0FA01210120FFF766FA1248FFF7A8
:100FD000A3FA05210220FFF75FFA1048FFF79CFAF9
:100FE0000023FB650023BB6500237B6500233B6575
:100FF0000023FB60FB680133FB60FFF715BB00BFFC
:101000007F8D5B00676666668C1400006C140000C0
:10101000B8140000C0140000CC140000E01400005C
:1010200080B582B000AF134B7B60134B3B6007E091
:101030003B681A1D3A607A68111D796012681A605F
:101040003B680E4A9342F3D30E480F494FF000021B
:101050008842B8BF40F8042BFADB094A084B1B68EA
:1010600043F470031360FFF7AFFA00BF0837BD46C3
:1010700080BD00BF201500000000002000000020FF
:1010800088ED00E0000000200002002080B400AFE6
:10109000FEE700BF80B400AFFEE700BF80B400AF42
:1010A000FEE700BFD0F8003412F0010F10B500F5D4
:1010B000806414BF0B438B43236012F0020FD0F8FF
:1010C000202400F5846314BF114322EA0101196052
:1010D00010BD30B5D0F8004512F0010F00F5A06545
:1010E00014BF0C438C432C60D0F8045500F5A06469
:1010F00012F0020F04F1040414BF0D438D43256068
:10110000D0F8084512F0040F00F5A16514BF0C4398
:101110008C432C6012F0080FD0F8182500F5A3645A
:1011200014BF0A438A432260D0F80C4500F5A06240
:1011300013F0010F02F10C0214BF0C438C43146036
:10114000D0F8102513F0020F00F5A26414BF0A4373
:101150008A432260D0F8144500F5A26213F0040F10
:1011600002F1040214BF0C438C431460D0F81C45F8
:1011700000F5A26213F0080F02F10C0214BF0C4339
:101180008C43146000F5A56223B9D0F8283543EAF2
:10119000010103E0D0F8283523EA0101116030BDD8
:1011A00040F82120704770B50122082305460C46FF
:1011B000FFF78FFF284621460122BDE87040FFF768
:1011C00071BF000000F07043B3F1704F15D100F40F
:1011D0007F42114B120A00F0FF00D318800003F089
:1011E000704240F0007023F07F43104323F47003FB
:1011F00040EA431301221A607047020F074B53F86D
:10120000223081B200F4F8101A68000C11FA00F0D4
:1012100010431860704700BF00E60F40EC14000058
:101220000138FDD170470000534B1A6812F0E04FAF
:101230002DE9F041044606D01A68504B02EA030338
:10124000B3F1805F02D1002CC0F294804C494D4A2A
:101250000B68166843F4006323F4800546F40066C7
:1012600013F0020F0D60166002D014F0020F05D0CB
:1012700015F0010F1AD014F0010F17D164F0030319
:101280001D403F4B002E1D6005DA06F07003302B29
:1012900005D0702B02E005F03003302B02D14FF463
:1012A000805001E04FF40020FFF7BAFF04F4FE6322
:1012B00025F4FE6545EA0308334D324F26F000461B
:1012C00004EA050526F0700645EA060604F008055E
:1012D00046EAC5052A4E1020C6F800803D60FFF79B
:1012E0009FFF28F4405804F40052284904F4405366
:1012F00025F4005548EA030340201543244A0860BA
:1013000052BF33603D60336023F0F86304EA0202A9
:1013100023F0030358BF3D60134304F0FC5125F054
:10132000FC5214F0804F42EA010208D0194922F41D
:10133000800204EA010143F480030A4301E022F041
:10134000804214F4006F0CD14FF400411248006841
:1013500010F0400F01D10139F8D123F4006322F4D9
:10136000006207490B60074B10201A60BDE8F0418E
:10137000FFF756BFBDE8F08100E00F400000FF70AE
:1013800060E00F4070E00F403000008058E00F40F8
:101390000300C0070000404050E00F40931E222B86
:1013A00010D80A2A10B506D000230C46194400F0C4
:1013B0000FF8204610BD0028F6DA2D230B704042AE
:1013C0000123F2E700200870704700BFFFF7E6BF77
:1013D000F0B5DFF878E0164604460F46BEE80F0089
:1013E0008BB06D460FC5BEE80F000FC59EE8030029
:1013F000B31E45F8040B222B297022D87D1E2846E7
:10140000002200E01A46B4FBF6F10AAB06FB1144D9
:1014100023440C4613F8283C00F8013F531C0029D4
:10142000F0D1F954BB184AB1197815F8010F297099
:101430000134111B8C4203F80109F5DB38460BB06F
:10144000F0BD002038700BB0F0BD00BFF8140000F4
:10145000FFF7BEBF5041524120424F5A4D4100005C
:101460004D414B494E455349000000002E000000FD
:101470005949524D494C494B000000004F4E4C55C4
:101480004B0000004245534C494B00003000000027
:101490004249524C494B0000594152494D4C494B2D
:1014A0000000000043455952454B4C494B00000099
:1014B0004D4554454C494B0044454C494B000000B8
:1014C0004B555255534C554B000000004C757466FB
:1014D000656E2052657365746C656D650000000073
:1014E000596170696E697A210000000000E10F40C7
:1014F00004E10F4008E10F403031323334353637E4
:1015000038396162636465666768696A6B6C6D6EC1
:101510006F707172737475767778797A0000000055
:04152000F8B500BF5B
:04152400F8B500BF57
:00000001FF
